{
  "contractName": "SimpleWallet",
  "abi": [
    {
      "constant": true,
      "inputs": [
        {
          "name": "",
          "type": "address"
        }
      ],
      "name": "isAllowedToSendFundsMapping",
      "outputs": [
        {
          "name": "allowed",
          "type": "bool"
        },
        {
          "name": "amount_sends",
          "type": "uint256"
        }
      ],
      "payable": false,
      "stateMutability": "view",
      "type": "function"
    },
    {
      "inputs": [],
      "payable": false,
      "stateMutability": "nonpayable",
      "type": "constructor"
    },
    {
      "payable": true,
      "stateMutability": "payable",
      "type": "fallback"
    },
    {
      "anonymous": false,
      "inputs": [
        {
          "indexed": false,
          "name": "_sender",
          "type": "address"
        },
        {
          "indexed": false,
          "name": "_amount",
          "type": "uint256"
        }
      ],
      "name": "Deposit",
      "type": "event"
    },
    {
      "anonymous": false,
      "inputs": [
        {
          "indexed": false,
          "name": "_sender",
          "type": "address"
        },
        {
          "indexed": false,
          "name": "_amount",
          "type": "uint256"
        },
        {
          "indexed": false,
          "name": "_beneficiary",
          "type": "address"
        }
      ],
      "name": "Withdrawal",
      "type": "event"
    },
    {
      "constant": false,
      "inputs": [
        {
          "name": "amount",
          "type": "uint256"
        },
        {
          "name": "receiver",
          "type": "address"
        }
      ],
      "name": "sendFunds",
      "outputs": [],
      "payable": false,
      "stateMutability": "nonpayable",
      "type": "function"
    },
    {
      "constant": false,
      "inputs": [
        {
          "name": "_address",
          "type": "address"
        }
      ],
      "name": "allowToSendFundsMapping",
      "outputs": [],
      "payable": false,
      "stateMutability": "nonpayable",
      "type": "function"
    },
    {
      "constant": false,
      "inputs": [
        {
          "name": "_address",
          "type": "address"
        }
      ],
      "name": "disallowToSendFundsMapping",
      "outputs": [],
      "payable": false,
      "stateMutability": "nonpayable",
      "type": "function"
    },
    {
      "constant": true,
      "inputs": [
        {
          "name": "_address",
          "type": "address"
        }
      ],
      "name": "isAllowedToSend",
      "outputs": [
        {
          "name": "",
          "type": "bool"
        }
      ],
      "payable": false,
      "stateMutability": "view",
      "type": "function"
    },
    {
      "constant": true,
      "inputs": [
        {
          "name": "_address",
          "type": "address"
        },
        {
          "name": "_index",
          "type": "uint256"
        }
      ],
      "name": "getWithdrawalForAddress",
      "outputs": [
        {
          "name": "",
          "type": "address"
        },
        {
          "name": "",
          "type": "uint256"
        }
      ],
      "payable": false,
      "stateMutability": "view",
      "type": "function"
    },
    {
      "constant": false,
      "inputs": [],
      "name": "killWallet",
      "outputs": [],
      "payable": false,
      "stateMutability": "nonpayable",
      "type": "function"
    }
  ],
  "bytecode": "0x608060405234801561001057600080fd5b50336000806101000a81548173ffffffffffffffffffffffffffffffffffffffff021916908373ffffffffffffffffffffffffffffffffffffffff160217905550610c99806100606000396000f3fe608060405260043610610083576000357c0100000000000000000000000000000000000000000000000000000000900463ffffffff1680630bc605ad146101b45780632986d8bd1461021d578063b2686774146102bf578063b67ba1b51461031a578063cb3a4c1614610331578063dfb38ac3146103a1578063eb8324a8146103f2575b6000809054906101000a900473ffffffffffffffffffffffffffffffffffffffff1673ffffffffffffffffffffffffffffffffffffffff163373ffffffffffffffffffffffffffffffffffffffff16141515610147576040517f08c379a00000000000000000000000000000000000000000000000000000000081526004018080602001828103825260148152602001807f596f7520617265206e6f7420616c6c6f7765642100000000000000000000000081525060200191505060405180910390fd5b7fe1fffcc4923d04b559f4d29a8bfc6cda04eb5b0d3c460751c2402c5c5cc9109c3334604051808373ffffffffffffffffffffffffffffffffffffffff1673ffffffffffffffffffffffffffffffffffffffff1681526020018281526020019250505060405180910390a1005b3480156101c057600080fd5b50610203600480360360208110156101d757600080fd5b81019080803573ffffffffffffffffffffffffffffffffffffffff169060200190929190505050610443565b604051808215151515815260200191505060405180910390f35b34801561022957600080fd5b506102766004803603604081101561024057600080fd5b81019080803573ffffffffffffffffffffffffffffffffffffffff169060200190929190803590602001909291905050506104f3565b604051808373ffffffffffffffffffffffffffffffffffffffff1673ffffffffffffffffffffffffffffffffffffffff1681526020018281526020019250505060405180910390f35b3480156102cb57600080fd5b50610318600480360360408110156102e257600080fd5b8101908080359060200190929190803573ffffffffffffffffffffffffffffffffffffffff1690602001909291905050506105cf565b005b34801561032657600080fd5b5061032f6108fb565b005b34801561033d57600080fd5b506103806004803603602081101561035457600080fd5b81019080803573ffffffffffffffffffffffffffffffffffffffff1690602001909291905050506109f9565b60405180831515151581526020018281526020019250505060405180910390f35b3480156103ad57600080fd5b506103f0600480360360208110156103c457600080fd5b81019080803573ffffffffffffffffffffffffffffffffffffffff169060200190929190505050610a2a565b005b3480156103fe57600080fd5b506104416004803603602081101561041557600080fd5b81019080803573ffffffffffffffffffffffffffffffffffffffff169060200190929190505050610b4b565b005b6000600160008373ffffffffffffffffffffffffffffffffffffffff1673ffffffffffffffffffffffffffffffffffffffff16815260200190815260200160002060000160009054906101000a900460ff16806104ec57506000809054906101000a900473ffffffffffffffffffffffffffffffffffffffff1673ffffffffffffffffffffffffffffffffffffffff163373ffffffffffffffffffffffffffffffffffffffff16145b9050919050565b600080600160008573ffffffffffffffffffffffffffffffffffffffff1673ffffffffffffffffffffffffffffffffffffffff168152602001908152602001600020600201600084815260200190815260200160002060000160009054906101000a900473ffffffffffffffffffffffffffffffffffffffff16600160008673ffffffffffffffffffffffffffffffffffffffff1673ffffffffffffffffffffffffffffffffffffffff168152602001908152602001600020600201600085815260200190815260200160002060010154915091509250929050565b6105d833610443565b151561064c576040517f08c379a000000000000000000000000000000000000000000000000000000000815260040180806020018281038252601d8152602001807f596f7520617265206e6f7420616c6c6f7765642c20676f20617761792100000081525060200191505060405180910390fd5b8073ffffffffffffffffffffffffffffffffffffffff166108fc839081150290604051600060405180830381858888f19350505050158015610692573d6000803e3d6000fd5b507e1a143d5b175701cb3246058ffac3d63945192075a926ff73a19930f09d587a338383604051808473ffffffffffffffffffffffffffffffffffffffff1673ffffffffffffffffffffffffffffffffffffffff1681526020018381526020018273ffffffffffffffffffffffffffffffffffffffff1673ffffffffffffffffffffffffffffffffffffffff168152602001935050505060405180910390a180600160003373ffffffffffffffffffffffffffffffffffffffff1673ffffffffffffffffffffffffffffffffffffffff1681526020019081526020016000206002016000600160003373ffffffffffffffffffffffffffffffffffffffff1673ffffffffffffffffffffffffffffffffffffffff16815260200190815260200160002060010154815260200190815260200160002060000160006101000a81548173ffffffffffffffffffffffffffffffffffffffff021916908373ffffffffffffffffffffffffffffffffffffffff16021790555081600160003373ffffffffffffffffffffffffffffffffffffffff1673ffffffffffffffffffffffffffffffffffffffff1681526020019081526020016000206002016000600160003373ffffffffffffffffffffffffffffffffffffffff1673ffffffffffffffffffffffffffffffffffffffff16815260200190815260200160002060010154815260200190815260200160002060010181905550600160003373ffffffffffffffffffffffffffffffffffffffff1673ffffffffffffffffffffffffffffffffffffffff168152602001908152602001600020600101600081548092919060010191905055505050565b6000809054906101000a900473ffffffffffffffffffffffffffffffffffffffff1673ffffffffffffffffffffffffffffffffffffffff163373ffffffffffffffffffffffffffffffffffffffff161415156109bf576040517f08c379a00000000000000000000000000000000000000000000000000000000081526004018080602001828103825260148152602001807f596f7520617265206e6f7420616c6c6f7765642100000000000000000000000081525060200191505060405180910390fd5b6000809054906101000a900473ffffffffffffffffffffffffffffffffffffffff1673ffffffffffffffffffffffffffffffffffffffff16ff5b60016020528060005260406000206000915090508060000160009054906101000a900460ff16908060010154905082565b6000809054906101000a900473ffffffffffffffffffffffffffffffffffffffff1673ffffffffffffffffffffffffffffffffffffffff163373ffffffffffffffffffffffffffffffffffffffff16141515610aee576040517f08c379a00000000000000000000000000000000000000000000000000000000081526004018080602001828103825260148152602001807f596f7520617265206e6f7420616c6c6f7765642100000000000000000000000081525060200191505060405180910390fd5b60018060008373ffffffffffffffffffffffffffffffffffffffff1673ffffffffffffffffffffffffffffffffffffffff16815260200190815260200160002060000160006101000a81548160ff02191690831515021790555050565b6000809054906101000a900473ffffffffffffffffffffffffffffffffffffffff1673ffffffffffffffffffffffffffffffffffffffff163373ffffffffffffffffffffffffffffffffffffffff16141515610c0f576040517f08c379a00000000000000000000000000000000000000000000000000000000081526004018080602001828103825260148152602001807f596f7520617265206e6f7420616c6c6f7765642100000000000000000000000081525060200191505060405180910390fd5b6000600160008373ffffffffffffffffffffffffffffffffffffffff1673ffffffffffffffffffffffffffffffffffffffff16815260200190815260200160002060000160006101000a81548160ff0219169083151502179055505056fea165627a7a7230582090c371bb2945718e2d0c60669421bb5de3676708fa6a874a661472c94e8bd8a20029",
  "source": "pragma solidity ^0.5.0;\n\n\ncontract SimpleWallet {\n  address payable owner;\n\n  struct WithdrawalStruct{\n    address to;\n    uint amount;\n  } \n\n  struct Senders {\n        bool allowed;\n        uint amount_sends;\n        mapping(uint => WithdrawalStruct) withdrawals;\n    }\n\n  mapping(address => Senders) public isAllowedToSendFundsMapping;\n    \n  constructor() public{\n    owner = msg.sender;\n    }\n    \n  event Deposit(address _sender, uint _amount);\n  event Withdrawal(address _sender, uint _amount, address _beneficiary);\n    \n  modifier onlyOwner() {\n    require(msg.sender == owner, \"You are not allowed!\");\n    _;\n  }\n\n  function() payable external onlyOwner {\n    emit Deposit(msg.sender, msg.value);    \n  }\n    \n  function sendFunds(uint amount, address payable receiver) public {\n    require(isAllowedToSend(msg.sender), \"You are not allowed, go away!\");\n    receiver.transfer(amount);\n    emit Withdrawal(msg.sender, amount, receiver);\n    isAllowedToSendFundsMapping[msg.sender].withdrawals[isAllowedToSendFundsMapping[msg.sender].amount_sends].to = receiver;\n    isAllowedToSendFundsMapping[msg.sender].withdrawals[isAllowedToSendFundsMapping[msg.sender].amount_sends].amount = amount;\n    isAllowedToSendFundsMapping[msg.sender].amount_sends++;\n    }\n    \n    function allowToSendFundsMapping(address _address) public onlyOwner {\n      isAllowedToSendFundsMapping[_address].allowed = true;\n    }\n    \n    function disallowToSendFundsMapping(address _address) public onlyOwner {\n      isAllowedToSendFundsMapping[_address].allowed = false;\n    }\n    \n    function isAllowedToSend(address _address) public view returns (bool) {\n      return isAllowedToSendFundsMapping[_address].allowed || msg.sender == owner;\n    } \n    \n    function getWithdrawalForAddress(address _address, uint _index) public view returns (address, uint){\n      return(isAllowedToSendFundsMapping[_address].withdrawals[_index].to, isAllowedToSendFundsMapping[_address].withdrawals[_index].amount); \n    }\n    \n    function killWallet() public onlyOwner {\n      selfdestruct(owner);\n    }\n}\n",
  "sourcePath": "/Users/lafountain/Desktop/the ideas/Wallet/contracts/SimpleWallet.sol",
  "compiler": {
    "name": "solc",
    "version": "0.5.0+commit.1d4f565a.Emscripten.clang"
  },
  "schemaVersion": "3.0.9",
  "updatedAt": "2019-06-04T19:24:15.293Z",
  "devdoc": {
    "methods": {}
  },
  "userdoc": {
    "methods": {}
  }
}